{
  "contractName": "CampaignFactory",
  "abi": [
    {
      "anonymous": false,
      "inputs": [
        {
          "indexed": false,
          "internalType": "string",
          "name": "title",
          "type": "string"
        },
        {
          "indexed": false,
          "internalType": "uint256",
          "name": "requiredAmount",
          "type": "uint256"
        },
        {
          "indexed": true,
          "internalType": "address",
          "name": "owner",
          "type": "address"
        },
        {
          "indexed": false,
          "internalType": "address",
          "name": "campaignAddress",
          "type": "address"
        },
        {
          "indexed": false,
          "internalType": "string",
          "name": "imgURI",
          "type": "string"
        },
        {
          "indexed": true,
          "internalType": "uint256",
          "name": "timestamp",
          "type": "uint256"
        },
        {
          "indexed": true,
          "internalType": "string",
          "name": "category",
          "type": "string"
        }
      ],
      "name": "campaignCreated",
      "type": "event"
    },
    {
      "inputs": [
        {
          "internalType": "uint256",
          "name": "",
          "type": "uint256"
        }
      ],
      "name": "deployedCampaigns",
      "outputs": [
        {
          "internalType": "address",
          "name": "",
          "type": "address"
        }
      ],
      "stateMutability": "view",
      "type": "function"
    },
    {
      "inputs": [
        {
          "internalType": "string",
          "name": "campaignTitle",
          "type": "string"
        },
        {
          "internalType": "uint256",
          "name": "requiredCampaignAmount",
          "type": "uint256"
        },
        {
          "internalType": "string",
          "name": "imgURI",
          "type": "string"
        },
        {
          "internalType": "string",
          "name": "category",
          "type": "string"
        },
        {
          "internalType": "string",
          "name": "storyURI",
          "type": "string"
        }
      ],
      "name": "createCampaign",
      "outputs": [],
      "stateMutability": "nonpayable",
      "type": "function"
    }
  ],
  "bytecode": "0x608060405234801561000f575f80fd5b506114458061001d5f395ff3fe608060405234801562000010575f80fd5b506004361062000038575f3560e01c8063339d50a5146200003c578063c658857d1462000072575b5f80fd5b6200005a600480360381019062000054919062000239565b62000092565b604051620000699190620002ac565b60405180910390f35b6200009060048036038101906200008a91906200041f565b620000cd565b005b5f8181548110620000a1575f80fd5b905f5260205f20015f915054906101000a900473ffffffffffffffffffffffffffffffffffffffff1681565b5f85858584604051620000e090620001e2565b620000ef9493929190620005b4565b604051809103905ff08015801562000109573d5f803e3d5ffd5b5090505f81908060018154018082558091505060019003905f5260205f20015f9091909190916101000a81548173ffffffffffffffffffffffffffffffffffffffff021916908373ffffffffffffffffffffffffffffffffffffffff160217905550826040516200017b919062000654565b6040518091039020423373ffffffffffffffffffffffffffffffffffffffff167ff932d905365211c7f19fda44bcb55b1adbe63365f7cdae1c35ddcb3e38ed1d468989868a604051620001d294939291906200066c565b60405180910390a4505050505050565b610d4a80620006c683390190565b5f604051905090565b5f80fd5b5f80fd5b5f819050919050565b620002158162000201565b811462000220575f80fd5b50565b5f8135905062000233816200020a565b92915050565b5f60208284031215620002515762000250620001f9565b5b5f620002608482850162000223565b91505092915050565b5f73ffffffffffffffffffffffffffffffffffffffff82169050919050565b5f620002948262000269565b9050919050565b620002a68162000288565b82525050565b5f602082019050620002c15f8301846200029b565b92915050565b5f80fd5b5f80fd5b5f601f19601f8301169050919050565b7f4e487b71000000000000000000000000000000000000000000000000000000005f52604160045260245ffd5b6200031782620002cf565b810181811067ffffffffffffffff82111715620003395762000338620002df565b5b80604052505050565b5f6200034d620001f0565b90506200035b82826200030c565b919050565b5f67ffffffffffffffff8211156200037d576200037c620002df565b5b6200038882620002cf565b9050602081019050919050565b828183375f83830152505050565b5f620003b9620003b38462000360565b62000342565b905082815260208101848484011115620003d857620003d7620002cb565b5b620003e584828562000395565b509392505050565b5f82601f830112620004045762000403620002c7565b5b813562000416848260208601620003a3565b91505092915050565b5f805f805f60a086880312156200043b576200043a620001f9565b5b5f86013567ffffffffffffffff8111156200045b576200045a620001fd565b5b6200046988828901620003ed565b95505060206200047c8882890162000223565b945050604086013567ffffffffffffffff811115620004a0576200049f620001fd565b5b620004ae88828901620003ed565b935050606086013567ffffffffffffffff811115620004d257620004d1620001fd565b5b620004e088828901620003ed565b925050608086013567ffffffffffffffff811115620005045762000503620001fd565b5b6200051288828901620003ed565b9150509295509295909350565b5f81519050919050565b5f82825260208201905092915050565b5f5b83811015620005585780820151818401526020810190506200053b565b5f8484015250505050565b5f6200056f826200051f565b6200057b818562000529565b93506200058d81856020860162000539565b6200059881620002cf565b840191505092915050565b620005ae8162000201565b82525050565b5f6080820190508181035f830152620005ce818762000563565b9050620005df6020830186620005a3565b8181036040830152620005f3818562000563565b9050818103606083015262000609818462000563565b905095945050505050565b5f81905092915050565b5f6200062a826200051f565b62000636818562000614565b93506200064881856020860162000539565b80840191505092915050565b5f6200066182846200061e565b915081905092915050565b5f6080820190508181035f83015262000686818762000563565b9050620006976020830186620005a3565b620006a660408301856200029b565b8181036060830152620006ba818462000563565b90509594505050505056fe608060405234801562000010575f80fd5b5060405162000d4a38038062000d4a833981810160405281019062000036919062000279565b835f908162000046919062000573565b508260018190555081600290816200005f919062000573565b50806003908162000071919062000573565b503360045f6101000a81548173ffffffffffffffffffffffffffffffffffffffff021916908373ffffffffffffffffffffffffffffffffffffffff1602179055505050505062000657565b5f604051905090565b5f80fd5b5f80fd5b5f80fd5b5f80fd5b5f601f19601f8301169050919050565b7f4e487b71000000000000000000000000000000000000000000000000000000005f52604160045260245ffd5b6200011d82620000d5565b810181811067ffffffffffffffff821117156200013f576200013e620000e5565b5b80604052505050565b5f62000153620000bc565b905062000161828262000112565b919050565b5f67ffffffffffffffff821115620001835762000182620000e5565b5b6200018e82620000d5565b9050602081019050919050565b5f5b83811015620001ba5780820151818401526020810190506200019d565b5f8484015250505050565b5f620001db620001d58462000166565b62000148565b905082815260208101848484011115620001fa57620001f9620000d1565b5b620002078482856200019b565b509392505050565b5f82601f830112620002265762000225620000cd565b5b815162000238848260208601620001c5565b91505092915050565b5f819050919050565b620002558162000241565b811462000260575f80fd5b50565b5f8151905062000273816200024a565b92915050565b5f805f8060808587031215620002945762000293620000c5565b5b5f85015167ffffffffffffffff811115620002b457620002b3620000c9565b5b620002c2878288016200020f565b9450506020620002d58782880162000263565b935050604085015167ffffffffffffffff811115620002f957620002f8620000c9565b5b62000307878288016200020f565b925050606085015167ffffffffffffffff8111156200032b576200032a620000c9565b5b62000339878288016200020f565b91505092959194509250565b5f81519050919050565b7f4e487b71000000000000000000000000000000000000000000000000000000005f52602260045260245ffd5b5f60028204905060018216806200039457607f821691505b602082108103620003aa57620003a96200034f565b5b50919050565b5f819050815f5260205f209050919050565b5f6020601f8301049050919050565b5f82821b905092915050565b5f600883026200040e7fffffffffffffffffffffffffffffffffffffffffffffffffffffffffffffffff82620003d1565b6200041a8683620003d1565b95508019841693508086168417925050509392505050565b5f819050919050565b5f6200045b620004556200044f8462000241565b62000432565b62000241565b9050919050565b5f819050919050565b62000476836200043b565b6200048e620004858262000462565b848454620003dd565b825550505050565b5f90565b620004a462000496565b620004b18184846200046b565b505050565b5b81811015620004d857620004cc5f826200049a565b600181019050620004b7565b5050565b601f8211156200052757620004f181620003b0565b620004fc84620003c2565b810160208510156200050c578190505b620005246200051b85620003c2565b830182620004b6565b50505b505050565b5f82821c905092915050565b5f620005495f19846008026200052c565b1980831691505092915050565b5f62000563838362000538565b9150826002028217905092915050565b6200057e8262000345565b67ffffffffffffffff8111156200059a5762000599620000e5565b5b620005a682546200037c565b620005b3828285620004dc565b5f60209050601f831160018114620005e9575f8415620005d4578287015190505b620005e0858262000556565b8655506200064f565b601f198416620005f986620003b0565b5f5b828110156200062257848901518255600182019150602085019450602081019050620005fb565b868310156200064257848901516200063e601f89168262000538565b8355505b6001600288020188555050505b505050505050565b6106e580620006655f395ff3fe60806040526004361061006f575f3560e01c80638da5cb5b1161004d5780638da5cb5b146100f15780639632e7201461011b578063ed88c68e14610145578063f3ccaac01461014f5761006f565b806346c922d11461007357806348b9ef401461009d5780634a79d50c146100c7575b5f80fd5b34801561007e575f80fd5b50610087610179565b60405161009491906104e1565b60405180910390f35b3480156100a8575f80fd5b506100b1610205565b6040516100be9190610519565b60405180910390f35b3480156100d2575f80fd5b506100db61020b565b6040516100e891906104e1565b60405180910390f35b3480156100fc575f80fd5b50610105610296565b6040516101129190610571565b60405180910390f35b348015610126575f80fd5b5061012f6102bb565b60405161013c9190610519565b60405180910390f35b61014d6102c1565b005b34801561015a575f80fd5b506101636103cb565b60405161017091906104e1565b60405180910390f35b60038054610186906105b7565b80601f01602080910402602001604051908101604052809291908181526020018280546101b2906105b7565b80156101fd5780601f106101d4576101008083540402835291602001916101fd565b820191905f5260205f20905b8154815290600101906020018083116101e057829003601f168201915b505050505081565b60015481565b5f8054610217906105b7565b80601f0160208091040260200160405190810160405280929190818152602001828054610243906105b7565b801561028e5780601f106102655761010080835404028352916020019161028e565b820191905f5260205f20905b81548152906001019060200180831161027157829003601f168201915b505050505081565b60045f9054906101000a900473ffffffffffffffffffffffffffffffffffffffff1681565b60055481565b60055460015411610307576040517f08c379a00000000000000000000000000000000000000000000000000000000081526004016102fe90610631565b60405180910390fd5b60045f9054906101000a900473ffffffffffffffffffffffffffffffffffffffff1673ffffffffffffffffffffffffffffffffffffffff166108fc3490811502906040515f60405180830381858888f1935050505015801561036b573d5f803e3d5ffd5b503460055f82825461037d919061067c565b9250508190555042343373ffffffffffffffffffffffffffffffffffffffff167fe6add99d06d9ad7fc456e746aa162eed6211c5002ef2dacdd67b8d2016822fba60405160405180910390a4565b600280546103d8906105b7565b80601f0160208091040260200160405190810160405280929190818152602001828054610404906105b7565b801561044f5780601f106104265761010080835404028352916020019161044f565b820191905f5260205f20905b81548152906001019060200180831161043257829003601f168201915b505050505081565b5f81519050919050565b5f82825260208201905092915050565b5f5b8381101561048e578082015181840152602081019050610473565b5f8484015250505050565b5f601f19601f8301169050919050565b5f6104b382610457565b6104bd8185610461565b93506104cd818560208601610471565b6104d681610499565b840191505092915050565b5f6020820190508181035f8301526104f981846104a9565b905092915050565b5f819050919050565b61051381610501565b82525050565b5f60208201905061052c5f83018461050a565b92915050565b5f73ffffffffffffffffffffffffffffffffffffffff82169050919050565b5f61055b82610532565b9050919050565b61056b81610551565b82525050565b5f6020820190506105845f830184610562565b92915050565b7f4e487b71000000000000000000000000000000000000000000000000000000005f52602260045260245ffd5b5f60028204905060018216806105ce57607f821691505b6020821081036105e1576105e061058a565b5b50919050565b7f726571756972656420616d6f756e742066756c66696c6c6564000000000000005f82015250565b5f61061b601983610461565b9150610626826105e7565b602082019050919050565b5f6020820190508181035f8301526106488161060f565b9050919050565b7f4e487b71000000000000000000000000000000000000000000000000000000005f52601160045260245ffd5b5f61068682610501565b915061069183610501565b92508282019050808211156106a9576106a861064f565b5b9291505056fea26469706673582212208ebcb4b28ce456b50cd1a8271b34f1825e6e0b9376cf6254e7d81fa0dbe77e7d64736f6c63430008150033a26469706673582212205428acc8a05e32f89d4626ae25fd4a5fb7396c1af03e1eb39fb9459cbb1bc07f64736f6c63430008150033",
  "immutableReferences": {},
  "source": "// SPDX-License-Identifier: Unlicensed\r\n\r\npragma solidity >0.7.0 <= 0.9.0;\r\n\r\ncontract CampaignFactory {\r\n    address[] public deployedCampaigns;\r\n\r\n    event campaignCreated(\r\n        string title,\r\n        uint requiredAmount,\r\n        address indexed owner,\r\n        address campaignAddress,\r\n        string imgURI,\r\n        uint indexed timestamp,\r\n        string indexed category\r\n    );\r\n\r\n    function createCampaign(\r\n        string memory campaignTitle,\r\n        uint requiredCampaignAmount, \r\n        string memory imgURI, \r\n        string memory category,\r\n        string memory storyURI) public\r\n        {\r\n            Campaign newCampaign = new Campaign(\r\n                campaignTitle, requiredCampaignAmount , imgURI, storyURI);\r\n             deployedCampaigns.push(address(newCampaign)); \r\n\r\n             emit campaignCreated(\r\n                campaignTitle, \r\n                requiredCampaignAmount, \r\n                msg.sender, \r\n                address(newCampaign),\r\n                imgURI,\r\n                block.timestamp,\r\n                category\r\n                );\r\n        }\r\n}    \r\n\r\n\r\n\r\ncontract Campaign {\r\n    string public title;\r\n    uint public requiredAmount;\r\n    string public image;\r\n    string public story;\r\n    address payable public owner;\r\n    uint public receivedAmount;\r\n     \r\n    event donated(address indexed donar, uint indexed amount, uint indexed timestamp);\r\n\r\n    constructor (\r\n        string memory campaignTitle, \r\n        uint requiredCampaignAmount,\r\n        string memory imgURI,\r\n        string memory storyURI\r\n        ) {\r\n        title = campaignTitle;\r\n        requiredAmount = requiredCampaignAmount;\r\n        image = imgURI;\r\n        story = storyURI;\r\n        owner = payable(msg.sender);\r\n    } \r\n    function donate() public payable {\r\n        require(requiredAmount > receivedAmount, \"required amount fulfilled\");\r\n        owner.transfer(msg.value);\r\n        receivedAmount += msg.value;\r\n        emit donated(msg.sender, msg.value, block.timestamp);\r\n    }\r\n        \r\n    \r\n}",
  "sourcePath": "C:\\Users\\shubh\\Documents\\nihal\\contracts\\my.sol",
  "compiler": {
    "name": "solc",
    "version": "0.8.21+commit.d9974bed.Emscripten.clang"
  },
  "schemaVersion": "3.4.16",
  "updatedAt": "2025-03-26T23:25:32.168Z",
  "devdoc": {
    "kind": "dev",
    "methods": {},
    "version": 1
  },
  "userdoc": {
    "kind": "user",
    "methods": {},
    "version": 1
  }
}