{
  "contractName": "Crowdfunding",
  "abi": [
    {
      "anonymous": false,
      "inputs": [
        {
          "indexed": false,
          "internalType": "uint256",
          "name": "campaignId",
          "type": "uint256"
        },
        {
          "indexed": false,
          "internalType": "string",
          "name": "title",
          "type": "string"
        },
        {
          "indexed": false,
          "internalType": "uint256",
          "name": "goal",
          "type": "uint256"
        }
      ],
      "name": "CampaignCreated",
      "type": "event"
    },
    {
      "anonymous": false,
      "inputs": [
        {
          "indexed": false,
          "internalType": "uint256",
          "name": "campaignId",
          "type": "uint256"
        },
        {
          "indexed": false,
          "internalType": "address",
          "name": "donor",
          "type": "address"
        },
        {
          "indexed": false,
          "internalType": "uint256",
          "name": "amount",
          "type": "uint256"
        }
      ],
      "name": "FundDonated",
      "type": "event"
    },
    {
      "anonymous": false,
      "inputs": [
        {
          "indexed": false,
          "internalType": "uint256",
          "name": "campaignId",
          "type": "uint256"
        }
      ],
      "name": "FundsWithdrawn",
      "type": "event"
    },
    {
      "inputs": [
        {
          "internalType": "uint256",
          "name": "",
          "type": "uint256"
        }
      ],
      "name": "campaigns",
      "outputs": [
        {
          "internalType": "address payable",
          "name": "owner",
          "type": "address"
        },
        {
          "internalType": "string",
          "name": "title",
          "type": "string"
        },
        {
          "internalType": "string",
          "name": "description",
          "type": "string"
        },
        {
          "internalType": "uint256",
          "name": "goal",
          "type": "uint256"
        },
        {
          "internalType": "uint256",
          "name": "raisedAmount",
          "type": "uint256"
        },
        {
          "internalType": "bool",
          "name": "completed",
          "type": "bool"
        }
      ],
      "stateMutability": "view",
      "type": "function"
    },
    {
      "inputs": [
        {
          "internalType": "uint256",
          "name": "",
          "type": "uint256"
        },
        {
          "internalType": "address",
          "name": "",
          "type": "address"
        }
      ],
      "name": "donations",
      "outputs": [
        {
          "internalType": "uint256",
          "name": "",
          "type": "uint256"
        }
      ],
      "stateMutability": "view",
      "type": "function"
    },
    {
      "inputs": [
        {
          "internalType": "string",
          "name": "_title",
          "type": "string"
        },
        {
          "internalType": "string",
          "name": "_description",
          "type": "string"
        },
        {
          "internalType": "uint256",
          "name": "_goal",
          "type": "uint256"
        }
      ],
      "name": "createCampaign",
      "outputs": [],
      "stateMutability": "nonpayable",
      "type": "function"
    },
    {
      "inputs": [],
      "name": "getCampaigns",
      "outputs": [
        {
          "internalType": "uint256",
          "name": "",
          "type": "uint256"
        }
      ],
      "stateMutability": "view",
      "type": "function"
    },
    {
      "inputs": [
        {
          "internalType": "uint256",
          "name": "_campaignId",
          "type": "uint256"
        }
      ],
      "name": "donateToCampaign",
      "outputs": [],
      "stateMutability": "payable",
      "type": "function"
    },
    {
      "inputs": [
        {
          "internalType": "uint256",
          "name": "_campaignId",
          "type": "uint256"
        }
      ],
      "name": "withdrawFunds",
      "outputs": [],
      "stateMutability": "nonpayable",
      "type": "function"
    }
  ],
  "bytecode": "0x608060405234801561001057600080fd5b506110f2806100206000396000f3fe6080604052600436106100555760003560e01c8063141961bc1461005a578063155dd5ee1461009c57806342a4fda8146100c5578063a6b03633146100e1578063ee1554a31461010c578063ffa56a5714610149575b600080fd5b34801561006657600080fd5b50610081600480360381019061007c9190610a3c565b610172565b60405161009396959493929190610c7c565b60405180910390f35b3480156100a857600080fd5b506100c360048036038101906100be9190610a3c565b6102fb565b005b6100df60048036038101906100da9190610a3c565b61053c565b005b3480156100ed57600080fd5b506100f66106dd565b6040516101039190610d8b565b60405180910390f35b34801561011857600080fd5b50610133600480360381019061012e9190610a65565b6106e9565b6040516101409190610d8b565b60405180910390f35b34801561015557600080fd5b50610170600480360381019061016b91906109bd565b61070e565b005b6000818154811061018257600080fd5b90600052602060002090600602016000915090508060000160009054906101000a900473ffffffffffffffffffffffffffffffffffffffff16908060010180546101cb90610fbe565b80601f01602080910402602001604051908101604052809291908181526020018280546101f790610fbe565b80156102445780601f1061021957610100808354040283529160200191610244565b820191906000526020600020905b81548152906001019060200180831161022757829003601f168201915b50505050509080600201805461025990610fbe565b80601f016020809104026020016040519081016040528092919081815260200182805461028590610fbe565b80156102d25780601f106102a7576101008083540402835291602001916102d2565b820191906000526020600020905b8154815290600101906020018083116102b557829003601f168201915b5050505050908060030154908060040154908060050160009054906101000a900460ff16905086565b6000808281548110610336577f4e487b7100000000000000000000000000000000000000000000000000000000600052603260045260246000fd5b906000526020600020906006020190508060000160009054906101000a900473ffffffffffffffffffffffffffffffffffffffff1673ffffffffffffffffffffffffffffffffffffffff163373ffffffffffffffffffffffffffffffffffffffff16146103d8576040517f08c379a00000000000000000000000000000000000000000000000000000000081526004016103cf90610d4b565b60405180910390fd5b806003015481600401541015610423576040517f08c379a000000000000000000000000000000000000000000000000000000000815260040161041a90610ceb565b60405180910390fd5b8060050160009054906101000a900460ff1615610475576040517f08c379a000000000000000000000000000000000000000000000000000000000815260040161046c90610d6b565b60405180910390fd5b60018160050160006101000a81548160ff0219169083151502179055508060000160009054906101000a900473ffffffffffffffffffffffffffffffffffffffff1673ffffffffffffffffffffffffffffffffffffffff166108fc82600401549081150290604051600060405180830381858888f19350505050158015610500573d6000803e3d6000fd5b507f4a37b25aab49761ecf63117fe82b98d750917451133cf797507bc9fb5b96044a826040516105309190610d8b565b60405180910390a15050565b6000808281548110610577577f4e487b7100000000000000000000000000000000000000000000000000000000600052603260045260246000fd5b906000526020600020906006020190508060050160009054906101000a900460ff16156105d9576040517f08c379a00000000000000000000000000000000000000000000000000000000081526004016105d090610d0b565b60405180910390fd5b6000341161061c576040517f08c379a000000000000000000000000000000000000000000000000000000000815260040161061390610d2b565b60405180910390fd5b348160040160008282546106309190610e98565b92505081905550346001600084815260200190815260200160002060003373ffffffffffffffffffffffffffffffffffffffff1673ffffffffffffffffffffffffffffffffffffffff16815260200190815260200160002060008282546106979190610e98565b925050819055507f9572dabc4581db8850e20d1c665044a90f3b9ed358016f7738580f7d372990788233346040516106d193929190610da6565b60405180910390a15050565b60008080549050905090565b6001602052816000526040600020602052806000526040600020600091509150505481565b60006040518060c001604052803373ffffffffffffffffffffffffffffffffffffffff1681526020018581526020018481526020018381526020016000815260200160001515815250908060018154018082558091505060019003906000526020600020906006020160009091909190915060008201518160000160006101000a81548173ffffffffffffffffffffffffffffffffffffffff021916908373ffffffffffffffffffffffffffffffffffffffff16021790555060208201518160010190805190602001906107e3929190610888565b506040820151816002019080519060200190610800929190610888565b50606082015181600301556080820151816004015560a08201518160050160006101000a81548160ff02191690831515021790555050507f2170fee8e65b01596ec56f4b4df98e903e2baf55bb74a163480d31de5ce83025600160008054905061086a9190610eee565b848360405161087b93929190610ddd565b60405180910390a1505050565b82805461089490610fbe565b90600052602060002090601f0160209004810192826108b657600085556108fd565b82601f106108cf57805160ff19168380011785556108fd565b828001600101855582156108fd579182015b828111156108fc5782518255916020019190600101906108e1565b5b50905061090a919061090e565b5090565b5b8082111561092757600081600090555060010161090f565b5090565b600061093e61093984610e4c565b610e1b565b90508281526020810184848401111561095657600080fd5b610961848285610f7c565b509392505050565b6000813590506109788161108e565b92915050565b600082601f83011261098f57600080fd5b813561099f84826020860161092b565b91505092915050565b6000813590506109b7816110a5565b92915050565b6000806000606084860312156109d257600080fd5b600084013567ffffffffffffffff8111156109ec57600080fd5b6109f88682870161097e565b935050602084013567ffffffffffffffff811115610a1557600080fd5b610a218682870161097e565b9250506040610a32868287016109a8565b9150509250925092565b600060208284031215610a4e57600080fd5b6000610a5c848285016109a8565b91505092915050565b60008060408385031215610a7857600080fd5b6000610a86858286016109a8565b9250506020610a9785828601610969565b9150509250929050565b610aaa81610f34565b82525050565b610ab981610f22565b82525050565b610ac881610f46565b82525050565b6000610ad982610e7c565b610ae38185610e87565b9350610af3818560208601610f8b565b610afc8161107d565b840191505092915050565b6000610b14601883610e87565b91507f46756e64696e6720676f616c206e6f74207265616368656400000000000000006000830152602082019050919050565b6000610b54601583610e87565b91507f43616d706169676e20697320636f6d706c6574656400000000000000000000006000830152602082019050919050565b6000610b94602283610e87565b91507f446f6e6174696f6e206d7573742062652067726561746572207468616e207a6560008301527f726f0000000000000000000000000000000000000000000000000000000000006020830152604082019050919050565b6000610bfa601d83610e87565b91507f4f6e6c79206f776e65722063616e2077697468647261772066756e64730000006000830152602082019050919050565b6000610c3a601783610e87565b91507f46756e647320616c72656164792077697468647261776e0000000000000000006000830152602082019050919050565b610c7681610f72565b82525050565b600060c082019050610c916000830189610aa1565b8181036020830152610ca38188610ace565b90508181036040830152610cb78187610ace565b9050610cc66060830186610c6d565b610cd36080830185610c6d565b610ce060a0830184610abf565b979650505050505050565b60006020820190508181036000830152610d0481610b07565b9050919050565b60006020820190508181036000830152610d2481610b47565b9050919050565b60006020820190508181036000830152610d4481610b87565b9050919050565b60006020820190508181036000830152610d6481610bed565b9050919050565b60006020820190508181036000830152610d8481610c2d565b9050919050565b6000602082019050610da06000830184610c6d565b92915050565b6000606082019050610dbb6000830186610c6d565b610dc86020830185610ab0565b610dd56040830184610c6d565b949350505050565b6000606082019050610df26000830186610c6d565b8181036020830152610e048185610ace565b9050610e136040830184610c6d565b949350505050565b6000604051905081810181811067ffffffffffffffff82111715610e4257610e4161104e565b5b8060405250919050565b600067ffffffffffffffff821115610e6757610e6661104e565b5b601f19601f8301169050602081019050919050565b600081519050919050565b600082825260208201905092915050565b6000610ea382610f72565b9150610eae83610f72565b9250827fffffffffffffffffffffffffffffffffffffffffffffffffffffffffffffffff03821115610ee357610ee2610ff0565b5b828201905092915050565b6000610ef982610f72565b9150610f0483610f72565b925082821015610f1757610f16610ff0565b5b828203905092915050565b6000610f2d82610f52565b9050919050565b6000610f3f82610f52565b9050919050565b60008115159050919050565b600073ffffffffffffffffffffffffffffffffffffffff82169050919050565b6000819050919050565b82818337600083830152505050565b60005b83811015610fa9578082015181840152602081019050610f8e565b83811115610fb8576000848401525b50505050565b60006002820490506001821680610fd657607f821691505b60208210811415610fea57610fe961101f565b5b50919050565b7f4e487b7100000000000000000000000000000000000000000000000000000000600052601160045260246000fd5b7f4e487b7100000000000000000000000000000000000000000000000000000000600052602260045260246000fd5b7f4e487b7100000000000000000000000000000000000000000000000000000000600052604160045260246000fd5b6000601f19601f8301169050919050565b61109781610f22565b81146110a257600080fd5b50565b6110ae81610f72565b81146110b957600080fd5b5056fea264697066735822122067236b546f524fcd77ceca7b8796063a6c06fef73da19cdde466adf2a39e741564736f6c63430008000033",
  "immutableReferences": {},
  "source": "// Solidity Smart Contract (Crowdfunding.sol)\r\n// SPDX-License-Identifier: MIT\r\npragma solidity ^0.8.0;\r\n\r\ncontract Crowdfunding {\r\n    struct Campaign {\r\n        address payable owner;\r\n        string title;\r\n        string description;\r\n        uint goal;\r\n        uint raisedAmount;\r\n        bool completed;\r\n    }\r\n\r\n    Campaign[] public campaigns;\r\n    mapping(uint => mapping(address => uint)) public donations;\r\n\r\n    event CampaignCreated(uint campaignId, string title, uint goal);\r\n    event FundDonated(uint campaignId, address donor, uint amount);\r\n    event FundsWithdrawn(uint campaignId);\r\n\r\n    function createCampaign(\r\n        string memory _title,\r\n        string memory _description,\r\n        uint _goal\r\n    ) public {\r\n        campaigns.push(\r\n            Campaign({\r\n                owner: payable(msg.sender),\r\n                title: _title,\r\n                description: _description,\r\n                goal: _goal,\r\n                raisedAmount: 0,\r\n                completed: false\r\n            })\r\n        );\r\n        emit CampaignCreated(campaigns.length - 1, _title, _goal);\r\n    }\r\n\r\n    function getCampaigns() public view returns (uint) {\r\n        return campaigns.length;\r\n    }\r\n\r\n    function donateToCampaign(uint _campaignId) public payable {\r\n        Campaign storage campaign = campaigns[_campaignId];\r\n        require(!campaign.completed, \"Campaign is completed\");\r\n        require(msg.value > 0, \"Donation must be greater than zero\");\r\n\r\n        campaign.raisedAmount += msg.value;\r\n        donations[_campaignId][msg.sender] += msg.value;\r\n\r\n        emit FundDonated(_campaignId, msg.sender, msg.value);\r\n    }\r\n\r\n    function withdrawFunds(uint _campaignId) public {\r\n        Campaign storage campaign = campaigns[_campaignId];\r\n        require(msg.sender == campaign.owner, \"Only owner can withdraw funds\");\r\n        require(\r\n            campaign.raisedAmount >= campaign.goal,\r\n            \"Funding goal not reached\"\r\n        );\r\n        require(!campaign.completed, \"Funds already withdrawn\");\r\n\r\n        campaign.completed = true;\r\n        campaign.owner.transfer(campaign.raisedAmount);\r\n\r\n        emit FundsWithdrawn(_campaignId);\r\n    }\r\n}\r\n",
  "sourcePath": "C:\\Users\\yuvra\\OneDrive\\Desktop\\nihal\\nihal\\contracts\\CampaignFactory.sol",
  "compiler": {
    "name": "solc",
    "version": "0.8.0+commit.c7dfd78e.Emscripten.clang"
  },
  "schemaVersion": "3.4.16",
  "updatedAt": "2025-03-27T04:55:30.123Z",
  "devdoc": {
    "kind": "dev",
    "methods": {},
    "version": 1
  },
  "userdoc": {
    "kind": "user",
    "methods": {},
    "version": 1
  }
}